{
  "contractName": "NFTPort",
  "abi": [
    {
      "inputs": [],
      "stateMutability": "nonpayable",
      "type": "constructor"
    },
    {
      "anonymous": false,
      "inputs": [
        {
          "indexed": true,
          "internalType": "address",
          "name": "owner",
          "type": "address"
        },
        {
          "indexed": true,
          "internalType": "address",
          "name": "approved",
          "type": "address"
        },
        {
          "indexed": true,
          "internalType": "uint256",
          "name": "tokenId",
          "type": "uint256"
        }
      ],
      "name": "Approval",
      "type": "event"
    },
    {
      "anonymous": false,
      "inputs": [
        {
          "indexed": true,
          "internalType": "address",
          "name": "owner",
          "type": "address"
        },
        {
          "indexed": true,
          "internalType": "address",
          "name": "operator",
          "type": "address"
        },
        {
          "indexed": false,
          "internalType": "bool",
          "name": "approved",
          "type": "bool"
        }
      ],
      "name": "ApprovalForAll",
      "type": "event"
    },
    {
      "anonymous": false,
      "inputs": [
        {
          "indexed": true,
          "internalType": "address",
          "name": "previousOwner",
          "type": "address"
        },
        {
          "indexed": true,
          "internalType": "address",
          "name": "newOwner",
          "type": "address"
        }
      ],
      "name": "OwnershipTransferred",
      "type": "event"
    },
    {
      "anonymous": false,
      "inputs": [
        {
          "indexed": true,
          "internalType": "address",
          "name": "from",
          "type": "address"
        },
        {
          "indexed": true,
          "internalType": "address",
          "name": "to",
          "type": "address"
        },
        {
          "indexed": true,
          "internalType": "uint256",
          "name": "tokenId",
          "type": "uint256"
        }
      ],
      "name": "Transfer",
      "type": "event"
    },
    {
      "inputs": [
        {
          "internalType": "uint256",
          "name": "",
          "type": "uint256"
        }
      ],
      "name": "CSPId_Name",
      "outputs": [
        {
          "internalType": "string",
          "name": "",
          "type": "string"
        }
      ],
      "stateMutability": "view",
      "type": "function"
    },
    {
      "inputs": [
        {
          "internalType": "address",
          "name": "",
          "type": "address"
        }
      ],
      "name": "addressToCSP",
      "outputs": [
        {
          "internalType": "uint256",
          "name": "id",
          "type": "uint256"
        },
        {
          "internalType": "string",
          "name": "name",
          "type": "string"
        },
        {
          "internalType": "address",
          "name": "owner",
          "type": "address"
        }
      ],
      "stateMutability": "view",
      "type": "function"
    },
    {
      "inputs": [
        {
          "internalType": "address",
          "name": "",
          "type": "address"
        }
      ],
      "name": "addressToCSPId",
      "outputs": [
        {
          "internalType": "uint256",
          "name": "",
          "type": "uint256"
        }
      ],
      "stateMutability": "view",
      "type": "function"
    },
    {
      "inputs": [
        {
          "internalType": "uint256",
          "name": "",
          "type": "uint256"
        }
      ],
      "name": "allCSP",
      "outputs": [
        {
          "internalType": "uint256",
          "name": "id",
          "type": "uint256"
        },
        {
          "internalType": "string",
          "name": "name",
          "type": "string"
        },
        {
          "internalType": "address",
          "name": "owner",
          "type": "address"
        }
      ],
      "stateMutability": "view",
      "type": "function"
    },
    {
      "inputs": [
        {
          "internalType": "uint256",
          "name": "",
          "type": "uint256"
        }
      ],
      "name": "allCSPIds",
      "outputs": [
        {
          "internalType": "uint256",
          "name": "",
          "type": "uint256"
        }
      ],
      "stateMutability": "view",
      "type": "function"
    },
    {
      "inputs": [
        {
          "internalType": "string",
          "name": "",
          "type": "string"
        }
      ],
      "name": "allCSPName",
      "outputs": [
        {
          "internalType": "uint256",
          "name": "",
          "type": "uint256"
        }
      ],
      "stateMutability": "view",
      "type": "function"
    },
    {
      "inputs": [
        {
          "internalType": "uint256",
          "name": "",
          "type": "uint256"
        },
        {
          "internalType": "uint256",
          "name": "",
          "type": "uint256"
        }
      ],
      "name": "allMobileNo",
      "outputs": [
        {
          "internalType": "uint256",
          "name": "",
          "type": "uint256"
        }
      ],
      "stateMutability": "view",
      "type": "function"
    },
    {
      "inputs": [
        {
          "internalType": "uint256",
          "name": "",
          "type": "uint256"
        }
      ],
      "name": "allMobileNoDetails",
      "outputs": [
        {
          "internalType": "uint256",
          "name": "tokenId",
          "type": "uint256"
        },
        {
          "internalType": "uint256",
          "name": "mobileNo",
          "type": "uint256"
        },
        {
          "internalType": "address",
          "name": "owner",
          "type": "address"
        },
        {
          "internalType": "address",
          "name": "user",
          "type": "address"
        }
      ],
      "stateMutability": "view",
      "type": "function"
    },
    {
      "inputs": [
        {
          "internalType": "address",
          "name": "to",
          "type": "address"
        },
        {
          "internalType": "uint256",
          "name": "tokenId",
          "type": "uint256"
        }
      ],
      "name": "approve",
      "outputs": [],
      "stateMutability": "nonpayable",
      "type": "function"
    },
    {
      "inputs": [
        {
          "internalType": "address",
          "name": "owner",
          "type": "address"
        }
      ],
      "name": "balanceOf",
      "outputs": [
        {
          "internalType": "uint256",
          "name": "",
          "type": "uint256"
        }
      ],
      "stateMutability": "view",
      "type": "function"
    },
    {
      "inputs": [
        {
          "internalType": "uint256",
          "name": "tokenId",
          "type": "uint256"
        }
      ],
      "name": "getApproved",
      "outputs": [
        {
          "internalType": "address",
          "name": "",
          "type": "address"
        }
      ],
      "stateMutability": "view",
      "type": "function"
    },
    {
      "inputs": [
        {
          "internalType": "address",
          "name": "owner",
          "type": "address"
        },
        {
          "internalType": "address",
          "name": "operator",
          "type": "address"
        }
      ],
      "name": "isApprovedForAll",
      "outputs": [
        {
          "internalType": "bool",
          "name": "",
          "type": "bool"
        }
      ],
      "stateMutability": "view",
      "type": "function"
    },
    {
      "inputs": [],
      "name": "name",
      "outputs": [
        {
          "internalType": "string",
          "name": "",
          "type": "string"
        }
      ],
      "stateMutability": "view",
      "type": "function"
    },
    {
      "inputs": [],
      "name": "owner",
      "outputs": [
        {
          "internalType": "address",
          "name": "",
          "type": "address"
        }
      ],
      "stateMutability": "view",
      "type": "function"
    },
    {
      "inputs": [
        {
          "internalType": "uint256",
          "name": "tokenId",
          "type": "uint256"
        }
      ],
      "name": "ownerOf",
      "outputs": [
        {
          "internalType": "address",
          "name": "",
          "type": "address"
        }
      ],
      "stateMutability": "view",
      "type": "function"
    },
    {
      "inputs": [],
      "name": "renounceOwnership",
      "outputs": [],
      "stateMutability": "nonpayable",
      "type": "function"
    },
    {
      "inputs": [
        {
          "internalType": "address",
          "name": "from",
          "type": "address"
        },
        {
          "internalType": "address",
          "name": "to",
          "type": "address"
        },
        {
          "internalType": "uint256",
          "name": "tokenId",
          "type": "uint256"
        }
      ],
      "name": "safeTransferFrom",
      "outputs": [],
      "stateMutability": "nonpayable",
      "type": "function"
    },
    {
      "inputs": [
        {
          "internalType": "address",
          "name": "from",
          "type": "address"
        },
        {
          "internalType": "address",
          "name": "to",
          "type": "address"
        },
        {
          "internalType": "uint256",
          "name": "tokenId",
          "type": "uint256"
        },
        {
          "internalType": "bytes",
          "name": "data",
          "type": "bytes"
        }
      ],
      "name": "safeTransferFrom",
      "outputs": [],
      "stateMutability": "nonpayable",
      "type": "function"
    },
    {
      "inputs": [
        {
          "internalType": "address",
          "name": "operator",
          "type": "address"
        },
        {
          "internalType": "bool",
          "name": "approved",
          "type": "bool"
        }
      ],
      "name": "setApprovalForAll",
      "outputs": [],
      "stateMutability": "nonpayable",
      "type": "function"
    },
    {
      "inputs": [
        {
          "internalType": "bytes4",
          "name": "interfaceId",
          "type": "bytes4"
        }
      ],
      "name": "supportsInterface",
      "outputs": [
        {
          "internalType": "bool",
          "name": "",
          "type": "bool"
        }
      ],
      "stateMutability": "view",
      "type": "function"
    },
    {
      "inputs": [],
      "name": "symbol",
      "outputs": [
        {
          "internalType": "string",
          "name": "",
          "type": "string"
        }
      ],
      "stateMutability": "view",
      "type": "function"
    },
    {
      "inputs": [
        {
          "internalType": "uint256",
          "name": "tokenId",
          "type": "uint256"
        }
      ],
      "name": "tokenURI",
      "outputs": [
        {
          "internalType": "string",
          "name": "",
          "type": "string"
        }
      ],
      "stateMutability": "view",
      "type": "function"
    },
    {
      "inputs": [
        {
          "internalType": "uint256",
          "name": "",
          "type": "uint256"
        },
        {
          "internalType": "uint256",
          "name": "",
          "type": "uint256"
        }
      ],
      "name": "tokenURIList",
      "outputs": [
        {
          "internalType": "string",
          "name": "",
          "type": "string"
        }
      ],
      "stateMutability": "view",
      "type": "function"
    },
    {
      "inputs": [
        {
          "internalType": "address",
          "name": "from",
          "type": "address"
        },
        {
          "internalType": "address",
          "name": "to",
          "type": "address"
        },
        {
          "internalType": "uint256",
          "name": "tokenId",
          "type": "uint256"
        }
      ],
      "name": "transferFrom",
      "outputs": [],
      "stateMutability": "nonpayable",
      "type": "function"
    },
    {
      "inputs": [
        {
          "internalType": "address",
          "name": "newOwner",
          "type": "address"
        }
      ],
      "name": "transferOwnership",
      "outputs": [],
      "stateMutability": "nonpayable",
      "type": "function"
    },
    {
      "inputs": [
        {
          "internalType": "string",
          "name": "_name",
          "type": "string"
        },
        {
          "internalType": "uint256",
          "name": "id",
          "type": "uint256"
        }
      ],
      "name": "createCSP",
      "outputs": [],
      "stateMutability": "nonpayable",
      "type": "function"
    },
    {
      "inputs": [
        {
          "internalType": "string",
          "name": "_cspName",
          "type": "string"
        },
        {
          "internalType": "uint256",
          "name": "_mobileNo",
          "type": "uint256"
        },
        {
          "internalType": "string",
          "name": "_tokenURI",
          "type": "string"
        },
        {
          "internalType": "address",
          "name": "user",
          "type": "address"
        }
      ],
      "name": "registerMobileNo",
      "outputs": [
        {
          "internalType": "uint256",
          "name": "",
          "type": "uint256"
        }
      ],
      "stateMutability": "nonpayable",
      "type": "function"
    },
    {
      "inputs": [
        {
          "internalType": "string",
          "name": "_cspName",
          "type": "string"
        },
        {
          "internalType": "uint256",
          "name": "_mobileNo",
          "type": "uint256"
        },
        {
          "internalType": "string",
          "name": "_newOwner",
          "type": "string"
        }
      ],
      "name": "transferMobileNo",
      "outputs": [],
      "stateMutability": "nonpayable",
      "type": "function"
    },
    {
      "inputs": [],
      "name": "getAllCSPIds",
      "outputs": [
        {
          "internalType": "uint256[]",
          "name": "",
          "type": "uint256[]"
        }
      ],
      "stateMutability": "view",
      "type": "function"
    },
    {
      "inputs": [
        {
          "internalType": "string",
          "name": "_cspName",
          "type": "string"
        }
      ],
      "name": "getAllMobileNo",
      "outputs": [
        {
          "internalType": "uint256[]",
          "name": "",
          "type": "uint256[]"
        }
      ],
      "stateMutability": "view",
      "type": "function"
    },
    {
      "inputs": [
        {
          "internalType": "uint256",
          "name": "_mobileNo",
          "type": "uint256"
        }
      ],
      "name": "getMobileNoDetails",
      "outputs": [
        {
          "components": [
            {
              "internalType": "uint256",
              "name": "tokenId",
              "type": "uint256"
            },
            {
              "internalType": "uint256",
              "name": "mobileNo",
              "type": "uint256"
            },
            {
              "internalType": "address",
              "name": "owner",
              "type": "address"
            },
            {
              "internalType": "address",
              "name": "user",
              "type": "address"
            }
          ],
          "internalType": "struct NFTPort.MobileNo",
          "name": "",
          "type": "tuple"
        }
      ],
      "stateMutability": "view",
      "type": "function"
    },
    {
      "inputs": [
        {
          "internalType": "string",
          "name": "_cspName",
          "type": "string"
        }
      ],
      "name": "getCSPDetails",
      "outputs": [
        {
          "components": [
            {
              "internalType": "uint256",
              "name": "id",
              "type": "uint256"
            },
            {
              "internalType": "string",
              "name": "name",
              "type": "string"
            },
            {
              "internalType": "address",
              "name": "owner",
              "type": "address"
            },
            {
              "internalType": "uint256[]",
              "name": "allMobileNo",
              "type": "uint256[]"
            }
          ],
          "internalType": "struct NFTPort.CSP",
          "name": "",
          "type": "tuple"
        }
      ],
      "stateMutability": "view",
      "type": "function"
    },
    {
      "inputs": [
        {
          "internalType": "address",
          "name": "_address",
          "type": "address"
        }
      ],
      "name": "getCSPByAddress",
      "outputs": [
        {
          "components": [
            {
              "internalType": "uint256",
              "name": "id",
              "type": "uint256"
            },
            {
              "internalType": "string",
              "name": "name",
              "type": "string"
            },
            {
              "internalType": "address",
              "name": "owner",
              "type": "address"
            },
            {
              "internalType": "uint256[]",
              "name": "allMobileNo",
              "type": "uint256[]"
            }
          ],
          "internalType": "struct NFTPort.CSP",
          "name": "",
          "type": "tuple"
        }
      ],
      "stateMutability": "view",
      "type": "function"
    },
    {
      "inputs": [
        {
          "internalType": "uint256",
          "name": "CSP_Id",
          "type": "uint256"
        }
      ],
      "name": "getCSPNameById",
      "outputs": [
        {
          "internalType": "string",
          "name": "",
          "type": "string"
        }
      ],
      "stateMutability": "view",
      "type": "function"
    },
    {
      "inputs": [
        {
          "internalType": "string",
          "name": "_cspName",
          "type": "string"
        }
      ],
      "name": "getCSPIdByName",
      "outputs": [
        {
          "internalType": "uint256",
          "name": "",
          "type": "uint256"
        }
      ],
      "stateMutability": "view",
      "type": "function"
    },
    {
      "inputs": [
        {
          "internalType": "address",
          "name": "_address",
          "type": "address"
        }
      ],
      "name": "getCSPIdByAddress",
      "outputs": [
        {
          "internalType": "uint256",
          "name": "",
          "type": "uint256"
        }
      ],
      "stateMutability": "view",
      "type": "function"
    },
    {
      "inputs": [
        {
          "internalType": "uint256",
          "name": "_cspId",
          "type": "uint256"
        },
        {
          "internalType": "uint256",
          "name": "tokenId",
          "type": "uint256"
        }
      ],
      "name": "getTokenURI",
      "outputs": [
        {
          "internalType": "string",
          "name": "",
          "type": "string"
        }
      ],
      "stateMutability": "view",
      "type": "function"
    }
  ],
  "bytecode": "0x608060405234801562000010575f80fd5b506040518060400160405280600781526020017f4e4654506f7274000000000000000000000000000000000000000000000000008152506040518060400160405280600481526020017f4e46545000000000000000000000000000000000000000000000000000000000815250815f90816200008d9190620003f6565b5080600190816200009f9190620003f6565b505050620000c2620000b6620000c860201b60201c565b620000cf60201b60201c565b620004da565b5f33905090565b5f60075f9054906101000a900473ffffffffffffffffffffffffffffffffffffffff1690508160075f6101000a81548173ffffffffffffffffffffffffffffffffffffffff021916908373ffffffffffffffffffffffffffffffffffffffff1602179055508173ffffffffffffffffffffffffffffffffffffffff168173ffffffffffffffffffffffffffffffffffffffff167f8be0079c531659141344cd1fd0a4f28419497f9722a3daafe3b4186f6b6457e060405160405180910390a35050565b5f81519050919050565b7f4e487b71000000000000000000000000000000000000000000000000000000005f52604160045260245ffd5b7f4e487b71000000000000000000000000000000000000000000000000000000005f52602260045260245ffd5b5f60028204905060018216806200020e57607f821691505b602082108103620002245762000223620001c9565b5b50919050565b5f819050815f5260205f209050919050565b5f6020601f8301049050919050565b5f82821b905092915050565b5f60088302620002887fffffffffffffffffffffffffffffffffffffffffffffffffffffffffffffffff826200024b565b6200029486836200024b565b95508019841693508086168417925050509392505050565b5f819050919050565b5f819050919050565b5f620002de620002d8620002d284620002ac565b620002b5565b620002ac565b9050919050565b5f819050919050565b620002f983620002be565b620003116200030882620002e5565b84845462000257565b825550505050565b5f90565b6200032762000319565b62000334818484620002ee565b505050565b5b818110156200035b576200034f5f826200031d565b6001810190506200033a565b5050565b601f821115620003aa5762000374816200022a565b6200037f846200023c565b810160208510156200038f578190505b620003a76200039e856200023c565b83018262000339565b50505b505050565b5f82821c905092915050565b5f620003cc5f1984600802620003af565b1980831691505092915050565b5f620003e68383620003bb565b9150826002028217905092915050565b620004018262000192565b67ffffffffffffffff8111156200041d576200041c6200019c565b5b620004298254620001f6565b620004368282856200035f565b5f60209050601f8311600181146200046c575f841562000457578287015190505b620004638582620003d9565b865550620004d2565b601f1984166200047c866200022a565b5f5b82811015620004a5578489015182556001820191506020850194506020810190506200047e565b86831015620004c55784890151620004c1601f891682620003bb565b8355505b6001600288020188555050505b505050505050565b614b5980620004e85f395ff3fe608060405234801561000f575f80fd5b5060043610610225575f3560e01c8063a0be15791161012e578063b88d4fde116100b6578063da33c5dc1161007a578063da33c5dc14610733578063e10fb25614610763578063e2649d6814610793578063e985e9c5146107c6578063f2fde38b146107f657610225565b8063b88d4fde14610657578063c16241b214610673578063c87b56dd146106a3578063c961d8fa146106d3578063d51e2aff1461070357610225565b8063ac61ddc1116100fd578063ac61ddc114610567578063ad22a3f214610597578063afbd903a146105c7578063b39b2dd4146105f7578063b88b10291461062757610225565b8063a0be1579146104bb578063a22cb465146104eb578063a8311c4d14610507578063a965c0b71461053757610225565b806370a08231116101b15780638a4d2ba3116101805780638a4d2ba3146104015780638da5cb5b146104315780638ef7c5d31461044f57806393679f711461048157806395d89b411461049d57610225565b806370a0823114610379578063715018a6146103a9578063760ced73146103b35780637b95f0c4146103cf57610225565b80631f9a32c8116101f85780631f9a32c8146102c357806323b872dd146102e157806342842e0e146102fd5780635968931f146103195780636352211e1461034957610225565b806301ffc9a71461022957806306fdde0314610259578063081812fc14610277578063095ea7b3146102a7575b5f80fd5b610243600480360381019061023e9190613274565b610812565b60405161025091906132b9565b60405180910390f35b6102616108f3565b60405161026e919061335c565b60405180910390f35b610291600480360381019061028c91906133af565b610982565b60405161029e9190613419565b60405180910390f35b6102c160048036038101906102bc919061345c565b6109c4565b005b6102cb610ada565b6040516102d89190613551565b60405180910390f35b6102fb60048036038101906102f69190613571565b610b30565b005b61031760048036038101906103129190613571565b610b90565b005b610333600480360381019061032e91906136ed565b610baf565b6040516103409190613743565b60405180910390f35b610363600480360381019061035e91906133af565b610bd6565b6040516103709190613419565b60405180910390f35b610393600480360381019061038e919061375c565b610c5a565b6040516103a09190613743565b60405180910390f35b6103b1610d0e565b005b6103cd60048036038101906103c89190613787565b610d21565b005b6103e960048036038101906103e4919061375c565b610fed565b6040516103f89392919061380f565b60405180910390f35b61041b600480360381019061041691906136ed565b6110b8565b6040516104289190613743565b60405180910390f35b6104396110e5565b6040516104469190613419565b60405180910390f35b610469600480360381019061046491906133af565b61110d565b6040516104789392919061380f565b60405180910390f35b61049b6004803603810190610496919061384b565b6111d8565b005b6104a56113e1565b6040516104b2919061335c565b60405180910390f35b6104d560048036038101906104d091906136ed565b611471565b6040516104e29190613551565b60405180910390f35b610505600480360381019061050091906138cf565b6114fb565b005b610521600480360381019061051c919061375c565b611511565b60405161052e9190613a37565b60405180910390f35b610551600480360381019061054c91906133af565b6116ac565b60405161055e9190613743565b60405180910390f35b610581600480360381019061057c9190613a57565b6116cc565b60405161058e9190613743565b60405180910390f35b6105b160048036038101906105ac9190613a57565b6116f7565b6040516105be919061335c565b60405180910390f35b6105e160048036038101906105dc9190613a57565b6117a8565b6040516105ee919061335c565b60405180910390f35b610611600480360381019061060c919061375c565b61184e565b60405161061e9190613743565b60405180910390f35b610641600480360381019061063c91906133af565b611863565b60405161064e919061335c565b60405180910390f35b610671600480360381019061066c9190613b33565b6118fe565b005b61068d6004803603810190610688919061375c565b611960565b60405161069a9190613743565b60405180910390f35b6106bd60048036038101906106b891906133af565b6119a6565b6040516106ca919061335c565b60405180910390f35b6106ed60048036038101906106e891906133af565b611ab0565b6040516106fa9190613c06565b60405180910390f35b61071d60048036038101906107189190613c1f565b611b98565b60405161072a9190613743565b60405180910390f35b61074d600480360381019061074891906136ed565b611e3a565b60405161075a9190613a37565b60405180910390f35b61077d600480360381019061077891906133af565b611fcc565b60405161078a919061335c565b60405180910390f35b6107ad60048036038101906107a891906133af565b61206d565b6040516107bd9493929190613cbb565b60405180910390f35b6107e060048036038101906107db9190613cfe565b6120d7565b6040516107ed91906132b9565b60405180910390f35b610810600480360381019061080b919061375c565b612165565b005b5f7f80ac58cd000000000000000000000000000000000000000000000000000000007bffffffffffffffffffffffffffffffffffffffffffffffffffffffff1916827bffffffffffffffffffffffffffffffffffffffffffffffffffffffff191614806108dc57507f5b5e139f000000000000000000000000000000000000000000000000000000007bffffffffffffffffffffffffffffffffffffffffffffffffffffffff1916827bffffffffffffffffffffffffffffffffffffffffffffffffffffffff1916145b806108ec57506108eb826121e7565b5b9050919050565b60605f805461090190613d69565b80601f016020809104026020016040519081016040528092919081815260200182805461092d90613d69565b80156109785780601f1061094f57610100808354040283529160200191610978565b820191905f5260205f20905b81548152906001019060200180831161095b57829003601f168201915b5050505050905090565b5f61098c82612250565b60045f8381526020019081526020015f205f9054906101000a900473ffffffffffffffffffffffffffffffffffffffff169050919050565b5f6109ce82610bd6565b90508073ffffffffffffffffffffffffffffffffffffffff168373ffffffffffffffffffffffffffffffffffffffff1603610a3e576040517f08c379a0000000000000000000000000000000000000000000000000000000008152600401610a3590613e09565b60405180910390fd5b8073ffffffffffffffffffffffffffffffffffffffff16610a5d61229b565b73ffffffffffffffffffffffffffffffffffffffff161480610a8c5750610a8b81610a8661229b565b6120d7565b5b610acb576040517f08c379a0000000000000000000000000000000000000000000000000000000008152600401610ac290613e97565b60405180910390fd5b610ad583836122a2565b505050565b60606008805480602002602001604051908101604052809291908181526020018280548015610b2657602002820191905f5260205f20905b815481526020019060010190808311610b12575b5050505050905090565b610b41610b3b61229b565b82612358565b610b80576040517f08c379a0000000000000000000000000000000000000000000000000000000008152600401610b7790613f25565b60405180910390fd5b610b8b8383836123ec565b505050565b610baa83838360405180602001604052805f8152506118fe565b505050565b5f600e82604051610bc09190613f7d565b9081526020016040518091039020549050919050565b5f80610be1836126d8565b90505f73ffffffffffffffffffffffffffffffffffffffff168173ffffffffffffffffffffffffffffffffffffffff1603610c51576040517f08c379a0000000000000000000000000000000000000000000000000000000008152600401610c4890613fdd565b60405180910390fd5b80915050919050565b5f8073ffffffffffffffffffffffffffffffffffffffff168273ffffffffffffffffffffffffffffffffffffffff1603610cc9576040517f08c379a0000000000000000000000000000000000000000000000000000000008152600401610cc09061406b565b60405180910390fd5b60035f8373ffffffffffffffffffffffffffffffffffffffff1673ffffffffffffffffffffffffffffffffffffffff1681526020019081526020015f20549050919050565b610d16612711565b610d1f5f61278f565b565b5f600e84604051610d329190613f7d565b90815260200160405180910390205490505f600e83604051610d549190613f7d565b90815260200160405180910390205490503373ffffffffffffffffffffffffffffffffffffffff16600d5f8681526020019081526020015f206003015f9054906101000a900473ffffffffffffffffffffffffffffffffffffffff1673ffffffffffffffffffffffffffffffffffffffff1614610e06576040517f08c379a0000000000000000000000000000000000000000000000000000000008152600401610dfd906140f9565b60405180910390fd5b5f600d5f8681526020019081526020015f205f01549050600c5f8381526020019081526020015f2085908060018154018082558091505060019003905f5260205f20015f9091909190915055600a5f8381526020019081526020015f206002015f9054906101000a900473ffffffffffffffffffffffffffffffffffffffff16600d5f8781526020019081526020015f206002015f6101000a81548173ffffffffffffffffffffffffffffffffffffffff021916908373ffffffffffffffffffffffffffffffffffffffff1602179055505f5b600c5f8581526020019081526020015f2080549050811015610f695785600c5f8681526020019081526020015f208281548110610f1957610f18614117565b5b905f5260205f20015403610f5657600c5f8581526020019081526020015f208181548110610f4a57610f49614117565b5b905f5260205f20015f90555b8080610f6190614171565b915050610ed9565b505f600a5f8581526020019081526020015f206002015f9054906101000a900473ffffffffffffffffffffffffffffffffffffffff1690505f600a5f8581526020019081526020015f206002015f9054906101000a900473ffffffffffffffffffffffffffffffffffffffff169050610fe38282856123ec565b5050505050505050565b600b602052805f5260405f205f91509050805f01549080600101805461101290613d69565b80601f016020809104026020016040519081016040528092919081815260200182805461103e90613d69565b80156110895780601f1061106057610100808354040283529160200191611089565b820191905f5260205f20905b81548152906001019060200180831161106c57829003601f168201915b505050505090806002015f9054906101000a900473ffffffffffffffffffffffffffffffffffffffff16905083565b600e818051602081018201805184825260208301602085012081835280955050505050505f915090505481565b5f60075f9054906101000a900473ffffffffffffffffffffffffffffffffffffffff16905090565b600a602052805f5260405f205f91509050805f01549080600101805461113290613d69565b80601f016020809104026020016040519081016040528092919081815260200182805461115e90613d69565b80156111a95780601f10611180576101008083540402835291602001916111a9565b820191905f5260205f20905b81548152906001019060200180831161118c57829003601f168201915b505050505090806002015f9054906101000a900473ffffffffffffffffffffffffffffffffffffffff16905083565b5f600a5f8381526020019081526020015f20905081815f0181905550828160010190816112059190614355565b5033816002015f6101000a81548173ffffffffffffffffffffffffffffffffffffffff021916908373ffffffffffffffffffffffffffffffffffffffff160217905550600882908060018154018082558091505060019003905f5260205f20015f90919091909150558260095f8481526020019081526020015f20908161128c9190614355565b5081600e8460405161129e9190613f7d565b9081526020016040518091039020819055508160105f3373ffffffffffffffffffffffffffffffffffffffff1673ffffffffffffffffffffffffffffffffffffffff1681526020019081526020015f2081905550600a5f8381526020019081526020015f20600b5f3373ffffffffffffffffffffffffffffffffffffffff1673ffffffffffffffffffffffffffffffffffffffff1681526020019081526020015f205f820154815f01556001820181600101908161135c9190614439565b50600282015f9054906101000a900473ffffffffffffffffffffffffffffffffffffffff16816002015f6101000a81548173ffffffffffffffffffffffffffffffffffffffff021916908373ffffffffffffffffffffffffffffffffffffffff16021790555060038201816003019080546113d8929190613119565b50905050505050565b6060600180546113f090613d69565b80601f016020809104026020016040519081016040528092919081815260200182805461141c90613d69565b80156114675780601f1061143e57610100808354040283529160200191611467565b820191905f5260205f20905b81548152906001019060200180831161144a57829003601f168201915b5050505050905090565b60605f600e836040516114849190613f7d565b9081526020016040518091039020549050600c5f8281526020019081526020015f208054806020026020016040519081016040528092919081815260200182805480156114ee57602002820191905f5260205f20905b8154815260200190600101908083116114da575b5050505050915050919050565b61150d61150661229b565b8383612852565b5050565b611519613167565b600b5f8373ffffffffffffffffffffffffffffffffffffffff1673ffffffffffffffffffffffffffffffffffffffff1681526020019081526020015f206040518060800160405290815f820154815260200160018201805461157a90613d69565b80601f01602080910402602001604051908101604052809291908181526020018280546115a690613d69565b80156115f15780601f106115c8576101008083540402835291602001916115f1565b820191905f5260205f20905b8154815290600101906020018083116115d457829003601f168201915b50505050508152602001600282015f9054906101000a900473ffffffffffffffffffffffffffffffffffffffff1673ffffffffffffffffffffffffffffffffffffffff1673ffffffffffffffffffffffffffffffffffffffff1681526020016003820180548060200260200160405190810160405280929190818152602001828054801561169c57602002820191905f5260205f20905b815481526020019060010190808311611688575b5050505050815250509050919050565b600881815481106116bb575f80fd5b905f5260205f20015f915090505481565b600c602052815f5260405f2081815481106116e5575f80fd5b905f5260205f20015f91509150505481565b6060600f5f8481526020019081526020015f205f8381526020019081526020015f20805461172490613d69565b80601f016020809104026020016040519081016040528092919081815260200182805461175090613d69565b801561179b5780601f106117725761010080835404028352916020019161179b565b820191905f5260205f20905b81548152906001019060200180831161177e57829003601f168201915b5050505050905092915050565b600f602052815f5260405f20602052805f5260405f205f915091505080546117cf90613d69565b80601f01602080910402602001604051908101604052809291908181526020018280546117fb90613d69565b80156118465780601f1061181d57610100808354040283529160200191611846565b820191905f5260205f20905b81548152906001019060200180831161182957829003601f168201915b505050505081565b6010602052805f5260405f205f915090505481565b6009602052805f5260405f205f91509050805461187f90613d69565b80601f01602080910402602001604051908101604052809291908181526020018280546118ab90613d69565b80156118f65780601f106118cd576101008083540402835291602001916118f6565b820191905f5260205f20905b8154815290600101906020018083116118d957829003601f168201915b505050505081565b61190f61190961229b565b83612358565b61194e576040517f08c379a000000000000000000000000000000000000000000000000000000000815260040161194590613f25565b60405180910390fd5b61195a848484846129b9565b50505050565b5f60105f8373ffffffffffffffffffffffffffffffffffffffff1673ffffffffffffffffffffffffffffffffffffffff1681526020019081526020015f20549050919050565b60606119b182612250565b5f60065f8481526020019081526020015f2080546119ce90613d69565b80601f01602080910402602001604051908101604052809291908181526020018280546119fa90613d69565b8015611a455780601f10611a1c57610100808354040283529160200191611a45565b820191905f5260205f20905b815481529060010190602001808311611a2857829003601f168201915b505050505090505f611a55612a15565b90505f815103611a69578192505050611aab565b5f82511115611a9d578082604051602001611a8592919061451e565b60405160208183030381529060405292505050611aab565b611aa684612a2b565b925050505b919050565b611ab86131a3565b600d5f8381526020019081526020015f206040518060800160405290815f820154815260200160018201548152602001600282015f9054906101000a900473ffffffffffffffffffffffffffffffffffffffff1673ffffffffffffffffffffffffffffffffffffffff1673ffffffffffffffffffffffffffffffffffffffff168152602001600382015f9054906101000a900473ffffffffffffffffffffffffffffffffffffffff1673ffffffffffffffffffffffffffffffffffffffff1673ffffffffffffffffffffffffffffffffffffffff16815250509050919050565b5f80600e86604051611baa9190613f7d565b90815260200160405180910390205490505f600a5f8381526020019081526020015f206002015f9054906101000a900473ffffffffffffffffffffffffffffffffffffffff1690505f606487611c009190614541565b6103e884611c0e9190614541565b611c189190614582565b9050600c5f8481526020019081526020015f2087908060018154018082558091505060019003905f5260205f20015f90919091909150555f600d5f8981526020019081526020015f20905081815f018190555087816001018190555082816002015f6101000a81548173ffffffffffffffffffffffffffffffffffffffff021916908373ffffffffffffffffffffffffffffffffffffffff16021790555085816003015f6101000a81548173ffffffffffffffffffffffffffffffffffffffff021916908373ffffffffffffffffffffffffffffffffffffffff16021790555080600d5f8a81526020019081526020015f205f820154815f015560018201548160010155600282015f9054906101000a900473ffffffffffffffffffffffffffffffffffffffff16816002015f6101000a81548173ffffffffffffffffffffffffffffffffffffffff021916908373ffffffffffffffffffffffffffffffffffffffff160217905550600382015f9054906101000a900473ffffffffffffffffffffffffffffffffffffffff16816003015f6101000a81548173ffffffffffffffffffffffffffffffffffffffff021916908373ffffffffffffffffffffffffffffffffffffffff16021790555090505086600f5f8681526020019081526020015f205f8481526020019081526020015f209081611e169190614355565b50611e218383612a90565b611e2b8288612ca3565b81945050505050949350505050565b611e42613167565b5f600e83604051611e539190613f7d565b9081526020016040518091039020549050600a5f8281526020019081526020015f206040518060800160405290815f8201548152602001600182018054611e9990613d69565b80601f0160208091040260200160405190810160405280929190818152602001828054611ec590613d69565b8015611f105780601f10611ee757610100808354040283529160200191611f10565b820191905f5260205f20905b815481529060010190602001808311611ef357829003601f168201915b50505050508152602001600282015f9054906101000a900473ffffffffffffffffffffffffffffffffffffffff1673ffffffffffffffffffffffffffffffffffffffff1673ffffffffffffffffffffffffffffffffffffffff16815260200160038201805480602002602001604051908101604052809291908181526020018280548015611fbb57602002820191905f5260205f20905b815481526020019060010190808311611fa7575b505050505081525050915050919050565b606060095f8381526020019081526020015f208054611fea90613d69565b80601f016020809104026020016040519081016040528092919081815260200182805461201690613d69565b80156120615780601f1061203857610100808354040283529160200191612061565b820191905f5260205f20905b81548152906001019060200180831161204457829003601f168201915b50505050509050919050565b600d602052805f5260405f205f91509050805f015490806001015490806002015f9054906101000a900473ffffffffffffffffffffffffffffffffffffffff1690806003015f9054906101000a900473ffffffffffffffffffffffffffffffffffffffff16905084565b5f60055f8473ffffffffffffffffffffffffffffffffffffffff1673ffffffffffffffffffffffffffffffffffffffff1681526020019081526020015f205f8373ffffffffffffffffffffffffffffffffffffffff1673ffffffffffffffffffffffffffffffffffffffff1681526020019081526020015f205f9054906101000a900460ff16905092915050565b61216d612711565b5f73ffffffffffffffffffffffffffffffffffffffff168173ffffffffffffffffffffffffffffffffffffffff16036121db576040517f08c379a00000000000000000000000000000000000000000000000000000000081526004016121d290614625565b60405180910390fd5b6121e48161278f565b50565b5f7f01ffc9a7000000000000000000000000000000000000000000000000000000007bffffffffffffffffffffffffffffffffffffffffffffffffffffffff1916827bffffffffffffffffffffffffffffffffffffffffffffffffffffffff1916149050919050565b61225981612d0e565b612298576040517f08c379a000000000000000000000000000000000000000000000000000000000815260040161228f90613fdd565b60405180910390fd5b50565b5f33905090565b8160045f8381526020019081526020015f205f6101000a81548173ffffffffffffffffffffffffffffffffffffffff021916908373ffffffffffffffffffffffffffffffffffffffff160217905550808273ffffffffffffffffffffffffffffffffffffffff1661231283610bd6565b73ffffffffffffffffffffffffffffffffffffffff167f8c5be1e5ebec7d5bd14f71427d1e84f3dd0314c0f7b2291e5b200ac8c7c3b92560405160405180910390a45050565b5f8061236383610bd6565b90508073ffffffffffffffffffffffffffffffffffffffff168473ffffffffffffffffffffffffffffffffffffffff1614806123a557506123a481856120d7565b5b806123e357508373ffffffffffffffffffffffffffffffffffffffff166123cb84610982565b73ffffffffffffffffffffffffffffffffffffffff16145b91505092915050565b8273ffffffffffffffffffffffffffffffffffffffff1661240c82610bd6565b73ffffffffffffffffffffffffffffffffffffffff1614612462576040517f08c379a0000000000000000000000000000000000000000000000000000000008152600401612459906146b3565b60405180910390fd5b5f73ffffffffffffffffffffffffffffffffffffffff168273ffffffffffffffffffffffffffffffffffffffff16036124d0576040517f08c379a00000000000000000000000000000000000000000000000000000000081526004016124c790614741565b60405180910390fd5b6124dd8383836001612d4e565b8273ffffffffffffffffffffffffffffffffffffffff166124fd82610bd6565b73ffffffffffffffffffffffffffffffffffffffff1614612553576040517f08c379a000000000000000000000000000000000000000000000000000000000815260040161254a906146b3565b60405180910390fd5b60045f8281526020019081526020015f205f6101000a81549073ffffffffffffffffffffffffffffffffffffffff0219169055600160035f8573ffffffffffffffffffffffffffffffffffffffff1673ffffffffffffffffffffffffffffffffffffffff1681526020019081526020015f205f8282540392505081905550600160035f8473ffffffffffffffffffffffffffffffffffffffff1673ffffffffffffffffffffffffffffffffffffffff1681526020019081526020015f205f82825401925050819055508160025f8381526020019081526020015f205f6101000a81548173ffffffffffffffffffffffffffffffffffffffff021916908373ffffffffffffffffffffffffffffffffffffffff160217905550808273ffffffffffffffffffffffffffffffffffffffff168473ffffffffffffffffffffffffffffffffffffffff167fddf252ad1be2c89b69c2b068fc378daa952ba7f163c4a11628f55a4df523b3ef60405160405180910390a46126d38383836001612d54565b505050565b5f60025f8381526020019081526020015f205f9054906101000a900473ffffffffffffffffffffffffffffffffffffffff169050919050565b61271961229b565b73ffffffffffffffffffffffffffffffffffffffff166127376110e5565b73ffffffffffffffffffffffffffffffffffffffff161461278d576040517f08c379a0000000000000000000000000000000000000000000000000000000008152600401612784906147a9565b60405180910390fd5b565b5f60075f9054906101000a900473ffffffffffffffffffffffffffffffffffffffff1690508160075f6101000a81548173ffffffffffffffffffffffffffffffffffffffff021916908373ffffffffffffffffffffffffffffffffffffffff1602179055508173ffffffffffffffffffffffffffffffffffffffff168173ffffffffffffffffffffffffffffffffffffffff167f8be0079c531659141344cd1fd0a4f28419497f9722a3daafe3b4186f6b6457e060405160405180910390a35050565b8173ffffffffffffffffffffffffffffffffffffffff168373ffffffffffffffffffffffffffffffffffffffff16036128c0576040517f08c379a00000000000000000000000000000000000000000000000000000000081526004016128b790614811565b60405180910390fd5b8060055f8573ffffffffffffffffffffffffffffffffffffffff1673ffffffffffffffffffffffffffffffffffffffff1681526020019081526020015f205f8473ffffffffffffffffffffffffffffffffffffffff1673ffffffffffffffffffffffffffffffffffffffff1681526020019081526020015f205f6101000a81548160ff0219169083151502179055508173ffffffffffffffffffffffffffffffffffffffff168373ffffffffffffffffffffffffffffffffffffffff167f17307eab39ab6107e8899845ad3d59bd9653f200f220920489ca2b5937696c31836040516129ac91906132b9565b60405180910390a3505050565b6129c48484846123ec565b6129d084848484612d5a565b612a0f576040517f08c379a0000000000000000000000000000000000000000000000000000000008152600401612a069061489f565b60405180910390fd5b50505050565b606060405180602001604052805f815250905090565b6060612a3682612250565b5f612a3f612a15565b90505f815111612a5d5760405180602001604052805f815250612a88565b80612a6784612edc565b604051602001612a7892919061451e565b6040516020818303038152906040525b915050919050565b5f73ffffffffffffffffffffffffffffffffffffffff168273ffffffffffffffffffffffffffffffffffffffff1603612afe576040517f08c379a0000000000000000000000000000000000000000000000000000000008152600401612af590614907565b60405180910390fd5b612b0781612d0e565b15612b47576040517f08c379a0000000000000000000000000000000000000000000000000000000008152600401612b3e9061496f565b60405180910390fd5b612b545f83836001612d4e565b612b5d81612d0e565b15612b9d576040517f08c379a0000000000000000000000000000000000000000000000000000000008152600401612b949061496f565b60405180910390fd5b600160035f8473ffffffffffffffffffffffffffffffffffffffff1673ffffffffffffffffffffffffffffffffffffffff1681526020019081526020015f205f82825401925050819055508160025f8381526020019081526020015f205f6101000a81548173ffffffffffffffffffffffffffffffffffffffff021916908373ffffffffffffffffffffffffffffffffffffffff160217905550808273ffffffffffffffffffffffffffffffffffffffff165f73ffffffffffffffffffffffffffffffffffffffff167fddf252ad1be2c89b69c2b068fc378daa952ba7f163c4a11628f55a4df523b3ef60405160405180910390a4612c9f5f83836001612d54565b5050565b612cac82612d0e565b612ceb576040517f08c379a0000000000000000000000000000000000000000000000000000000008152600401612ce2906149fd565b60405180910390fd5b8060065f8481526020019081526020015f209081612d099190614355565b505050565b5f8073ffffffffffffffffffffffffffffffffffffffff16612d2f836126d8565b73ffffffffffffffffffffffffffffffffffffffff1614159050919050565b50505050565b50505050565b5f612d7a8473ffffffffffffffffffffffffffffffffffffffff16612fa6565b15612ecf578373ffffffffffffffffffffffffffffffffffffffff1663150b7a02612da361229b565b8786866040518563ffffffff1660e01b8152600401612dc59493929190614a6d565b6020604051808303815f875af1925050508015612e0057506040513d601f19601f82011682018060405250810190612dfd9190614acb565b60015b612e7f573d805f8114612e2e576040519150601f19603f3d011682016040523d82523d5f602084013e612e33565b606091505b505f815103612e77576040517f08c379a0000000000000000000000000000000000000000000000000000000008152600401612e6e9061489f565b60405180910390fd5b805181602001fd5b63150b7a0260e01b7bffffffffffffffffffffffffffffffffffffffffffffffffffffffff1916817bffffffffffffffffffffffffffffffffffffffffffffffffffffffff191614915050612ed4565b600190505b949350505050565b60605f6001612eea84612fc8565b0190505f8167ffffffffffffffff811115612f0857612f076135c9565b5b6040519080825280601f01601f191660200182016040528015612f3a5781602001600182028036833780820191505090505b5090505f82602001820190505b600115612f9b578080600190039150507f3031323334353637383961626364656600000000000000000000000000000000600a86061a8153600a8581612f9057612f8f614af6565b5b0494505f8503612f47575b819350505050919050565b5f808273ffffffffffffffffffffffffffffffffffffffff163b119050919050565b5f805f90507a184f03e93ff9f4daa797ed6e38ed64bf6a1f0100000000000000008310613024577a184f03e93ff9f4daa797ed6e38ed64bf6a1f010000000000000000838161301a57613019614af6565b5b0492506040810190505b6d04ee2d6d415b85acef81000000008310613061576d04ee2d6d415b85acef8100000000838161305757613056614af6565b5b0492506020810190505b662386f26fc10000831061309057662386f26fc10000838161308657613085614af6565b5b0492506010810190505b6305f5e10083106130b9576305f5e10083816130af576130ae614af6565b5b0492506008810190505b61271083106130de5761271083816130d4576130d3614af6565b5b0492506004810190505b6064831061310157606483816130f7576130f6614af6565b5b0492506002810190505b600a8310613110576001810190505b80915050919050565b828054828255905f5260205f20908101928215613156575f5260205f209182015b8281111561315557825482559160010191906001019061313a565b5b50905061316391906131f3565b5090565b60405180608001604052805f8152602001606081526020015f73ffffffffffffffffffffffffffffffffffffffff168152602001606081525090565b60405180608001604052805f81526020015f81526020015f73ffffffffffffffffffffffffffffffffffffffff1681526020015f73ffffffffffffffffffffffffffffffffffffffff1681525090565b5b8082111561320a575f815f9055506001016131f4565b5090565b5f604051905090565b5f80fd5b5f80fd5b5f7fffffffff0000000000000000000000000000000000000000000000000000000082169050919050565b6132538161321f565b811461325d575f80fd5b50565b5f8135905061326e8161324a565b92915050565b5f6020828403121561328957613288613217565b5b5f61329684828501613260565b91505092915050565b5f8115159050919050565b6132b38161329f565b82525050565b5f6020820190506132cc5f8301846132aa565b92915050565b5f81519050919050565b5f82825260208201905092915050565b5f5b838110156133095780820151818401526020810190506132ee565b5f8484015250505050565b5f601f19601f8301169050919050565b5f61332e826132d2565b61333881856132dc565b93506133488185602086016132ec565b61335181613314565b840191505092915050565b5f6020820190508181035f8301526133748184613324565b905092915050565b5f819050919050565b61338e8161337c565b8114613398575f80fd5b50565b5f813590506133a981613385565b92915050565b5f602082840312156133c4576133c3613217565b5b5f6133d18482850161339b565b91505092915050565b5f73ffffffffffffffffffffffffffffffffffffffff82169050919050565b5f613403826133da565b9050919050565b613413816133f9565b82525050565b5f60208201905061342c5f83018461340a565b92915050565b61343b816133f9565b8114613445575f80fd5b50565b5f8135905061345681613432565b92915050565b5f806040838503121561347257613471613217565b5b5f61347f85828601613448565b92505060206134908582860161339b565b9150509250929050565b5f81519050919050565b5f82825260208201905092915050565b5f819050602082019050919050565b6134cc8161337c565b82525050565b5f6134dd83836134c3565b60208301905092915050565b5f602082019050919050565b5f6134ff8261349a565b61350981856134a4565b9350613514836134b4565b805f5b8381101561354457815161352b88826134d2565b9750613536836134e9565b925050600181019050613517565b5085935050505092915050565b5f6020820190508181035f83015261356981846134f5565b905092915050565b5f805f6060848603121561358857613587613217565b5b5f61359586828701613448565b93505060206135a686828701613448565b92505060406135b78682870161339b565b9150509250925092565b5f80fd5b5f80fd5b7f4e487b71000000000000000000000000000000000000000000000000000000005f52604160045260245ffd5b6135ff82613314565b810181811067ffffffffffffffff8211171561361e5761361d6135c9565b5b80604052505050565b5f61363061320e565b905061363c82826135f6565b919050565b5f67ffffffffffffffff82111561365b5761365a6135c9565b5b61366482613314565b9050602081019050919050565b828183375f83830152505050565b5f61369161368c84613641565b613627565b9050828152602081018484840111156136ad576136ac6135c5565b5b6136b8848285613671565b509392505050565b5f82601f8301126136d4576136d36135c1565b5b81356136e484826020860161367f565b91505092915050565b5f6020828403121561370257613701613217565b5b5f82013567ffffffffffffffff81111561371f5761371e61321b565b5b61372b848285016136c0565b91505092915050565b61373d8161337c565b82525050565b5f6020820190506137565f830184613734565b92915050565b5f6020828403121561377157613770613217565b5b5f61377e84828501613448565b91505092915050565b5f805f6060848603121561379e5761379d613217565b5b5f84013567ffffffffffffffff8111156137bb576137ba61321b565b5b6137c7868287016136c0565b93505060206137d88682870161339b565b925050604084013567ffffffffffffffff8111156137f9576137f861321b565b5b613805868287016136c0565b9150509250925092565b5f6060820190506138225f830186613734565b81810360208301526138348185613324565b9050613843604083018461340a565b949350505050565b5f806040838503121561386157613860613217565b5b5f83013567ffffffffffffffff81111561387e5761387d61321b565b5b61388a858286016136c0565b925050602061389b8582860161339b565b9150509250929050565b6138ae8161329f565b81146138b8575f80fd5b50565b5f813590506138c9816138a5565b92915050565b5f80604083850312156138e5576138e4613217565b5b5f6138f285828601613448565b9250506020613903858286016138bb565b9150509250929050565b5f82825260208201905092915050565b5f613927826132d2565b613931818561390d565b93506139418185602086016132ec565b61394a81613314565b840191505092915050565b61395e816133f9565b82525050565b5f82825260208201905092915050565b5f61397e8261349a565b6139888185613964565b9350613993836134b4565b805f5b838110156139c35781516139aa88826134d2565b97506139b5836134e9565b925050600181019050613996565b5085935050505092915050565b5f608083015f8301516139e55f8601826134c3565b50602083015184820360208601526139fd828261391d565b9150506040830151613a126040860182613955565b5060608301518482036060860152613a2a8282613974565b9150508091505092915050565b5f6020820190508181035f830152613a4f81846139d0565b905092915050565b5f8060408385031215613a6d57613a6c613217565b5b5f613a7a8582860161339b565b9250506020613a8b8582860161339b565b9150509250929050565b5f67ffffffffffffffff821115613aaf57613aae6135c9565b5b613ab882613314565b9050602081019050919050565b5f613ad7613ad284613a95565b613627565b905082815260208101848484011115613af357613af26135c5565b5b613afe848285613671565b509392505050565b5f82601f830112613b1a57613b196135c1565b5b8135613b2a848260208601613ac5565b91505092915050565b5f805f8060808587031215613b4b57613b4a613217565b5b5f613b5887828801613448565b9450506020613b6987828801613448565b9350506040613b7a8782880161339b565b925050606085013567ffffffffffffffff811115613b9b57613b9a61321b565b5b613ba787828801613b06565b91505092959194509250565b608082015f820151613bc75f8501826134c3565b506020820151613bda60208501826134c3565b506040820151613bed6040850182613955565b506060820151613c006060850182613955565b50505050565b5f608082019050613c195f830184613bb3565b92915050565b5f805f8060808587031215613c3757613c36613217565b5b5f85013567ffffffffffffffff811115613c5457613c5361321b565b5b613c60878288016136c0565b9450506020613c718782880161339b565b935050604085013567ffffffffffffffff811115613c9257613c9161321b565b5b613c9e878288016136c0565b9250506060613caf87828801613448565b91505092959194509250565b5f608082019050613cce5f830187613734565b613cdb6020830186613734565b613ce8604083018561340a565b613cf5606083018461340a565b95945050505050565b5f8060408385031215613d1457613d13613217565b5b5f613d2185828601613448565b9250506020613d3285828601613448565b9150509250929050565b7f4e487b71000000000000000000000000000000000000000000000000000000005f52602260045260245ffd5b5f6002820490506001821680613d8057607f821691505b602082108103613d9357613d92613d3c565b5b50919050565b7f4552433732313a20617070726f76616c20746f2063757272656e74206f776e655f8201527f7200000000000000000000000000000000000000000000000000000000000000602082015250565b5f613df36021836132dc565b9150613dfe82613d99565b604082019050919050565b5f6020820190508181035f830152613e2081613de7565b9050919050565b7f4552433732313a20617070726f76652063616c6c6572206973206e6f7420746f5f8201527f6b656e206f776e6572206f7220617070726f76656420666f7220616c6c000000602082015250565b5f613e81603d836132dc565b9150613e8c82613e27565b604082019050919050565b5f6020820190508181035f830152613eae81613e75565b9050919050565b7f4552433732313a2063616c6c6572206973206e6f7420746f6b656e206f776e655f8201527f72206f7220617070726f76656400000000000000000000000000000000000000602082015250565b5f613f0f602d836132dc565b9150613f1a82613eb5565b604082019050919050565b5f6020820190508181035f830152613f3c81613f03565b9050919050565b5f81905092915050565b5f613f57826132d2565b613f618185613f43565b9350613f718185602086016132ec565b80840191505092915050565b5f613f888284613f4d565b915081905092915050565b7f4552433732313a20696e76616c696420746f6b656e20494400000000000000005f82015250565b5f613fc76018836132dc565b9150613fd282613f93565b602082019050919050565b5f6020820190508181035f830152613ff481613fbb565b9050919050565b7f4552433732313a2061646472657373207a65726f206973206e6f7420612076615f8201527f6c6964206f776e65720000000000000000000000000000000000000000000000602082015250565b5f6140556029836132dc565b915061406082613ffb565b604082019050919050565b5f6020820190508181035f83015261408281614049565b9050919050565b7f596f7520617265206e6f7420746865206f776e6572206f6620746869732043535f8201527f5000000000000000000000000000000000000000000000000000000000000000602082015250565b5f6140e36021836132dc565b91506140ee82614089565b604082019050919050565b5f6020820190508181035f830152614110816140d7565b9050919050565b7f4e487b71000000000000000000000000000000000000000000000000000000005f52603260045260245ffd5b7f4e487b71000000000000000000000000000000000000000000000000000000005f52601160045260245ffd5b5f61417b8261337c565b91507fffffffffffffffffffffffffffffffffffffffffffffffffffffffffffffffff82036141ad576141ac614144565b5b600182019050919050565b5f819050815f5260205f209050919050565b5f6020601f8301049050919050565b5f82821b905092915050565b5f600883026142147fffffffffffffffffffffffffffffffffffffffffffffffffffffffffffffffff826141d9565b61421e86836141d9565b95508019841693508086168417925050509392505050565b5f819050919050565b5f61425961425461424f8461337c565b614236565b61337c565b9050919050565b5f819050919050565b6142728361423f565b61428661427e82614260565b8484546141e5565b825550505050565b5f90565b61429a61428e565b6142a5818484614269565b505050565b5b818110156142c8576142bd5f82614292565b6001810190506142ab565b5050565b601f82111561430d576142de816141b8565b6142e7846141ca565b810160208510156142f6578190505b61430a614302856141ca565b8301826142aa565b50505b505050565b5f82821c905092915050565b5f61432d5f1984600802614312565b1980831691505092915050565b5f614345838361431e565b9150826002028217905092915050565b61435e826132d2565b67ffffffffffffffff811115614377576143766135c9565b5b6143818254613d69565b61438c8282856142cc565b5f60209050601f8311600181146143bd575f84156143ab578287015190505b6143b5858261433a565b86555061441c565b601f1984166143cb866141b8565b5f5b828110156143f2578489015182556001820191506020850194506020810190506143cd565b8683101561440f578489015161440b601f89168261431e565b8355505b6001600288020188555050505b505050505050565b5f8154905061443281613d69565b9050919050565b81810361444757505061451c565b61445082614424565b67ffffffffffffffff811115614469576144686135c9565b5b6144738254613d69565b61447e8282856142cc565b5f601f8311600181146144ab575f8415614499578287015490505b6144a3858261433a565b865550614515565b601f1984166144b9876141b8565b96506144c4866141b8565b5f5b828110156144eb578489015482556001820191506001850194506020810190506144c6565b868310156145085784890154614504601f89168261431e565b8355505b6001600288020188555050505b5050505050505b565b5f6145298285613f4d565b91506145358284613f4d565b91508190509392505050565b5f61454b8261337c565b91506145568361337c565b92508282026145648161337c565b9150828204841483151761457b5761457a614144565b5b5092915050565b5f61458c8261337c565b91506145978361337c565b92508282019050808211156145af576145ae614144565b5b92915050565b7f4f776e61626c653a206e6577206f776e657220697320746865207a65726f20615f8201527f6464726573730000000000000000000000000000000000000000000000000000602082015250565b5f61460f6026836132dc565b915061461a826145b5565b604082019050919050565b5f6020820190508181035f83015261463c81614603565b9050919050565b7f4552433732313a207472616e736665722066726f6d20696e636f7272656374205f8201527f6f776e6572000000000000000000000000000000000000000000000000000000602082015250565b5f61469d6025836132dc565b91506146a882614643565b604082019050919050565b5f6020820190508181035f8301526146ca81614691565b9050919050565b7f4552433732313a207472616e7366657220746f20746865207a65726f206164645f8201527f7265737300000000000000000000000000000000000000000000000000000000602082015250565b5f61472b6024836132dc565b9150614736826146d1565b604082019050919050565b5f6020820190508181035f8301526147588161471f565b9050919050565b7f4f776e61626c653a2063616c6c6572206973206e6f7420746865206f776e65725f82015250565b5f6147936020836132dc565b915061479e8261475f565b602082019050919050565b5f6020820190508181035f8301526147c081614787565b9050919050565b7f4552433732313a20617070726f766520746f2063616c6c6572000000000000005f82015250565b5f6147fb6019836132dc565b9150614806826147c7565b602082019050919050565b5f6020820190508181035f830152614828816147ef565b9050919050565b7f4552433732313a207472616e7366657220746f206e6f6e2045524337323152655f8201527f63656976657220696d706c656d656e7465720000000000000000000000000000602082015250565b5f6148896032836132dc565b91506148948261482f565b604082019050919050565b5f6020820190508181035f8301526148b68161487d565b9050919050565b7f4552433732313a206d696e7420746f20746865207a65726f20616464726573735f82015250565b5f6148f16020836132dc565b91506148fc826148bd565b602082019050919050565b5f6020820190508181035f83015261491e816148e5565b9050919050565b7f4552433732313a20746f6b656e20616c7265616479206d696e746564000000005f82015250565b5f614959601c836132dc565b915061496482614925565b602082019050919050565b5f6020820190508181035f8301526149868161494d565b9050919050565b7f45524337323155524953746f726167653a2055524920736574206f66206e6f6e5f8201527f6578697374656e7420746f6b656e000000000000000000000000000000000000602082015250565b5f6149e7602e836132dc565b91506149f28261498d565b604082019050919050565b5f6020820190508181035f830152614a14816149db565b9050919050565b5f81519050919050565b5f82825260208201905092915050565b5f614a3f82614a1b565b614a498185614a25565b9350614a598185602086016132ec565b614a6281613314565b840191505092915050565b5f608082019050614a805f83018761340a565b614a8d602083018661340a565b614a9a6040830185613734565b8181036060830152614aac8184614a35565b905095945050505050565b5f81519050614ac58161324a565b92915050565b5f60208284031215614ae057614adf613217565b5b5f614aed84828501614ab7565b91505092915050565b7f4e487b71000000000000000000000000000000000000000000000000000000005f52601260045260245ffdfea26469706673582212200e49568bd84a3f19892a5d12349df79e0ccc2e565326d2e9d583ccec30cf9ec164736f6c63430008140033",
  "immutableReferences": {},
  "source": "// SPDX-License-Identifier: GPL-3.0\npragma solidity >=0.4.22 <0.9.0;\n\nimport \"@openzeppelin/contracts/token/ERC721/ERC721.sol\";\nimport \"@openzeppelin/contracts/token/ERC721/extensions/ERC721URIStorage.sol\";\nimport \"@openzeppelin/contracts/utils/Counters.sol\";\nimport \"@openzeppelin/contracts/access/Ownable.sol\";\n\ncontract NFTPort is ERC721URIStorage, Ownable {\n    //using Counters for Counters.Counter;\n    //Counters.Counter private _tokenIds;\n\n    constructor() ERC721(\"NFTPort\", \"NFTP\") {}\n\n    struct CSP{\n        uint id;\n        string name;\n        address owner;\n        uint [] allMobileNo;\n    }\n\n    struct MobileNo{\n        uint tokenId;\n        uint mobileNo;\n        address owner;\n        address user;\n    }\n    uint[] public allCSPIds;\n    mapping(uint=>string) public CSPId_Name; //CSP_ID to CSP_Name\n    mapping(uint256 => CSP) public allCSP; // CSP_ID to CSP\n    mapping(address=>CSP) public addressToCSP;\n    mapping(uint256=> uint []) public allMobileNo; // CSP_ID to MobileNo\n    mapping(uint=> MobileNo) public allMobileNoDetails; // MobileNo to MobileNoDetails\n    mapping(string => uint) public allCSPName; // CSP_NAME to CSP_ID\n    mapping(uint=>mapping(uint=>string)) public tokenURIList;\n    mapping(address=>uint) public addressToCSPId;//CSP_Address to CSP_ID\n    //mapping(uint=>mapping(uint=>string)) public tokenURIList;\n    \n    //create new CSP\n    function createCSP(string memory _name, uint id) public  {\n        CSP storage newCSP = allCSP[id]; \n        newCSP.id = id;\n        newCSP.name = _name;\n        newCSP.owner = msg.sender;\n        //newCSP.allMobileNo = new uint[](0);\n        allCSPIds.push(id);\n        CSPId_Name[id]=_name;\n        allCSPName[_name] = id;\n        addressToCSPId[msg.sender] = id;\n        addressToCSP[msg.sender] = allCSP[id];\n    }\n    //Register new MobileNo\n    //Calling function should be the owner of the CSP\n    //Create a mobile Object attributes 1. mobile no 2. owner 3. tokenId\n    //Add the mobile no to the CSP[owner]\n    //Add the mobile no to the allMobileNoDetails\n    \n    function registerMobileNo(string  memory _cspName, uint _mobileNo, string memory _tokenURI, address user) public returns(uint256){\n        uint256 _cspId= allCSPName[_cspName];\n        address _cspAddress= allCSP[_cspId].owner;\n        //require(allCSP[_cspId].owner == msg.sender, \"You are not the owner of this CSP\");\n        \n        uint tokenId = _cspId*1000+_mobileNo*100;\n        allMobileNo[_cspId].push(_mobileNo);\n        MobileNo storage newMobileNo = allMobileNoDetails[_mobileNo];\n        newMobileNo.tokenId = tokenId;\n        newMobileNo.mobileNo = _mobileNo;\n        newMobileNo.owner = _cspAddress;\n        newMobileNo.user = user;\n        allMobileNoDetails[_mobileNo] = newMobileNo;\n        tokenURIList[_cspId][tokenId] = _tokenURI;\n        _mint(_cspAddress,tokenId);\n        _setTokenURI(tokenId, _tokenURI);\n        return tokenId;\n    }\n\n    //Transfer MobileNo\n    //Change the address of the owner of the mobile no\n    //Remove the number from the old CSP and add it to the new CSP\n\n\n    function transferMobileNo(string memory _cspName, uint _mobileNo, string memory  _newOwner) public {\n        uint256 _cspId= allCSPName[_cspName];\n        uint256 _newCspId= allCSPName[_newOwner];\n        require(allMobileNoDetails[_mobileNo].user == msg.sender, \"You are not the owner of this CSP\");\n        //require(allCSP[_newCspId].owner != msg.sender, \"You are the owner of this CSP\");\n        uint tokenId = allMobileNoDetails[_mobileNo].tokenId;\n        allMobileNo[_newCspId].push(_mobileNo);\n        allMobileNoDetails[_mobileNo].owner = allCSP[_newCspId].owner;\n        for(uint i=0;i<allMobileNo[_cspId].length;i++){\n            if(allMobileNo[_cspId][i] == _mobileNo){\n                delete allMobileNo[_cspId][i];\n            }\n        }\n        address oldCSP= allCSP[_cspId].owner;\n        address newCSP= allCSP[_newCspId].owner;\n        _transfer(oldCSP, newCSP, tokenId);\n\n    }\n    \n    //Get all the CSP ids\n    function getAllCSPIds() public view returns(uint[] memory){\n        return allCSPIds;\n    }\n    \n    //Get all the mobile no of a CSP\n    function getAllMobileNo(string memory _cspName) public view returns(uint[] memory){\n        uint256 _cspId= allCSPName[_cspName];\n        return allMobileNo[_cspId];\n    }\n\n    //Get the details of a mobile no\n    function getMobileNoDetails(uint _mobileNo) public view returns(MobileNo memory){\n        return allMobileNoDetails[_mobileNo];\n    }\n\n    //Get the details of a CSP\n    function getCSPDetails(string memory _cspName) public view returns(CSP memory){\n        uint256 _cspId= allCSPName[_cspName];\n        return allCSP[_cspId];\n    }\n\n    //Get the CSP of an address\n    function getCSPByAddress(address _address) public view returns(CSP memory){\n        return addressToCSP[_address];\n    }\n    function getCSPNameById(uint CSP_Id) public view returns(string memory) {\n        return CSPId_Name[CSP_Id];\n    }\n    function getCSPIdByName(string memory _cspName) public view returns(uint) {\n        return allCSPName[_cspName];\n    }\n    function getCSPIdByAddress(address _address) public view returns(uint) {\n        return addressToCSPId[_address];\n    }\n    function getTokenURI(uint _cspId, uint tokenId) public view returns(string memory){\n        return tokenURIList[_cspId][tokenId];\n    }\n}\n\n",
  "sourcePath": "/home/avi/WEB3/Demo/truffle/contracts/NFTPort.sol",
  "compiler": {
    "name": "solc",
    "version": "0.8.20+commit.a1b79de6.Emscripten.clang"
  },
  "schemaVersion": "3.4.14",
  "updatedAt": "2023-06-11T18:19:37.429Z",
  "devdoc": {
    "events": {
      "Approval(address,address,uint256)": {
        "details": "Emitted when `owner` enables `approved` to manage the `tokenId` token."
      },
      "ApprovalForAll(address,address,bool)": {
        "details": "Emitted when `owner` enables or disables (`approved`) `operator` to manage all of its assets."
      },
      "Transfer(address,address,uint256)": {
        "details": "Emitted when `tokenId` token is transferred from `from` to `to`."
      }
    },
    "kind": "dev",
    "methods": {
      "approve(address,uint256)": {
        "details": "See {IERC721-approve}."
      },
      "balanceOf(address)": {
        "details": "See {IERC721-balanceOf}."
      },
      "getApproved(uint256)": {
        "details": "See {IERC721-getApproved}."
      },
      "isApprovedForAll(address,address)": {
        "details": "See {IERC721-isApprovedForAll}."
      },
      "name()": {
        "details": "See {IERC721Metadata-name}."
      },
      "owner()": {
        "details": "Returns the address of the current owner."
      },
      "ownerOf(uint256)": {
        "details": "See {IERC721-ownerOf}."
      },
      "renounceOwnership()": {
        "details": "Leaves the contract without owner. It will not be possible to call `onlyOwner` functions anymore. Can only be called by the current owner. NOTE: Renouncing ownership will leave the contract without an owner, thereby removing any functionality that is only available to the owner."
      },
      "safeTransferFrom(address,address,uint256)": {
        "details": "See {IERC721-safeTransferFrom}."
      },
      "safeTransferFrom(address,address,uint256,bytes)": {
        "details": "See {IERC721-safeTransferFrom}."
      },
      "setApprovalForAll(address,bool)": {
        "details": "See {IERC721-setApprovalForAll}."
      },
      "supportsInterface(bytes4)": {
        "details": "See {IERC165-supportsInterface}."
      },
      "symbol()": {
        "details": "See {IERC721Metadata-symbol}."
      },
      "tokenURI(uint256)": {
        "details": "See {IERC721Metadata-tokenURI}."
      },
      "transferFrom(address,address,uint256)": {
        "details": "See {IERC721-transferFrom}."
      },
      "transferOwnership(address)": {
        "details": "Transfers ownership of the contract to a new account (`newOwner`). Can only be called by the current owner."
      }
    },
    "version": 1
  },
  "userdoc": {
    "kind": "user",
    "methods": {},
    "version": 1
  }
}